:10000000F5C000000C940D100C94E20F0C94B70F87
:100010000C948C0F0C94610F0C94360F0C940B0FF6
:100020000C94E00E14C1000012C1000010C10000C9
:100030000EC100000CC100000AC1000008C1000090
:1000400006C1000004C1000002C1000000C10000A0
:10005000FEC00000FCC00000FAC000000C94960E28
:10006000F6C000000C94600E0C94360EF0C0000038
:10007000EEC00000ECC00000EAC00000E8C00000D4
:10008000E6C00000E4C00000E2C00000E0C00000E4
:10009000DEC00000DCC00000DAC00000D8C00000F4
:1000A000D6C00000D4C00000D2C00000D0C0000004
:1000B000CEC00000CCC00000CAC00000C8C0000014
:1000C000C6C00000C4C00000C2C00000C0C0000024
:1000D000BEC00000BCC000000C94000E0C94D60DF5
:1000E000B6C0000000000A0B02090C0D0E08070341
:1000F00004010000000000000000000000000000FB
:1001000000000000000000000000000000000000EF
:1001100012111000000000000000000000000000AC
:100120000000000000000000000000002200250088
:1001300028002B002E0031003400020100000501D0
:1001400008010B0100002100240027002A002D00D7
:100150003000330001010000040107010A01050518
:100160000505070508080808020202020A0A08082D
:10017000040404040101010101010101030303035B
:1001800003030303040707070C0C0C0C0C0C0C0CEA
:100190000202020206060606060606060B0B0B0BFB
:1001A0000B0B0B0B01021020200808102040102020
:1001B000408002010201080402010102040810202B
:1001C0004080804020100804020180040201804029
:1001D0002010080402010804020101020408102092
:1001E00040800102040810204080381011241FBEF6
:1001F000CFEFD1E2DEBFCDBF00E00CBF25E0A8EC21
:10020000B2E001C01D92A331B207E1F712E0A0E015
:10021000B2E0ECE4F4E300E00BBF02C007900D9203
:10022000A83CB107D9F710E0C6EFD0E000E006C067
:1002300021970109802FFE010E94F117C53FD107C8
:1002400080E00807A9F70E949C100C94241AD8CECD
:1002500090E0FC01EC55FE4F2491825A9E4FFC0128
:100260008491882399F090E0880F991FFC01EC5B42
:10027000FE4FA591B491FC01E65DFE4F85919491EE
:100280008FB7F894EC91E22BEC938FBF0895E82F91
:10029000F0E0DF01AA0FBB1FA45FBD4F11967C9356
:1002A0006E93883008F045C08827E65AFE4F8F4F7E
:1002B0000C94F1177E0185016201690170017701DB
:1002C0008C019301809169008C7F80936900E89A8A
:1002D000089580916900837F80936900E99A089569
:1002E000809169008F7C80936900EA9A08958091DB
:1002F00069008F7380936900EB9A089580916A007A
:100300008C7F80936A00EC9A089580916A00837FC5
:1003100080936A00ED9A089580916A008F7C8093A3
:100320006A00EE9A089580916A008F7380936A0044
:10033000EF9A0895FC0124813581232B21F08081DF
:100340009181009721F41092F30283EF92E00895D7
:100350000895AF92BF92CF92DF92EF92FF920F93E8
:100360001F93CF93DF936C017B018B01040F151F4B
:10037000EB015E01AE18BF08C017D10759F06991B3
:10038000D601ED91FC910190F081E02DC601199507
:10039000892B79F7C501DF91CF911F910F91FF90C4
:1003A000EF90DF90CF90BF90AF900895FC01538DF8
:1003B000448D252F30E0842F90E0821B930B54173F
:1003C00010F0CF96089501970895FC01918D828DCC
:1003D000981761F0A28DAE0FBF2FB11D5D968C9165
:1003E000928D9F5F9F73928F90E008958FEF9FEFA4
:1003F00008952FB7F8948091EF029091F002A091A8
:10040000F102B091F2022FBF8093FC029093FD02A3
:10041000A093FE02B093FF0284EF92E0D6DF97FF35
:1004200026C02FB7F8948091EF029091F002A0912E
:10043000F102B091F2022FBF4091FC025091FD02F7
:100440006091FE027091FF02841B950BA60BB70B07
:100450004091F8025091F9026091FA027091FB020A
:1004600084179507A607B707B8F28FEF9FEF089597
:10047000FC01918D828D981731F0828DE80FF11D6E
:10048000858D90E008958FEF9FEF0895FC01918D89
:10049000228D892F90E0805C9F4F821B91098F7382
:1004A0009927089584EF92E0F1DF21E0892B09F488
:1004B00020E0822F089581E993E0E8DF21E0892B95
:1004C00009F420E0822F0895FC01A48DA80FB92F14
:1004D000B11DA35ABF4F2C91848D90E001968F736C
:1004E0009927848FA689B7892C93A089B1898C918B
:1004F000837080648C93938D848D981306C00288DA
:10050000F389E02D80818F7D80830895EF92FF92A3
:100510000F931F93CF93DF93EC0181E0888F9B8D26
:100520008C8D98131AC0E889F989808185FF15C0E0
:100530009FB7F894EE89FF896083E889F989808103
:100540008370806480839FBF81E090E0DF91CF91D2
:100550001F910F91FF90EF900895F62E0B8D10E0F4
:100560000F5F1F4F0F731127E02E8C8D8E110BC064
:100570000FB607FCFACFE889F989808185FFF5CFAE
:10058000CE01A2DFF2CFEB8DEC0FFD2FF11DE35A70
:10059000FF4FF0829FB7F8940B8FEA89FB89808127
:1005A0008062D0CFCF93DF93EC01888D8823B1F0A8
:1005B000AA89BB89E889F9898C9185FD03C080816E
:1005C00086FD0CC00FB607FCF7CF8C9185FFF2CFEC
:1005D000808185FFEDCFCE0177DFEACFDF91CF912C
:1005E000089580E090E0892B21F065DF81110E9461
:1005F000000080E090E0892B49F080E090E0892BBA
:1006000029F00E94000081110E94000080E090E02B
:10061000892B49F080E090E0892B29F00E940000AE
:1006200081110E94000080E090E0892B21F03ADFE8
:1006300081110C9400000895282F30E0F901EC514D
:10064000FF4F9491F901EC55FE4F4491225A3E4FD1
:10065000F9012491222309F435C0992311F1915015
:100660009231F8F4E92FF0E08827E65CFC4F8F4FD9
:100670000C94F1176B036F034C036303670351037F
:10068000720378037C03820386038A039003940336
:10069000510398039E03A203809180008F7780937B
:1006A0008000E22FF0E0EE0FFF1FE65DFE4FA59108
:1006B000B4918FB7F894EC91611148C040954E23E6
:1006C0004C938FBF0895809180008F7DE8CF8091FB
:1006D0008000877FE4CF84B58F7784BDE2CF84B577
:1006E0008F7DFBCF8091B0008F778093B000D9CF02
:1006F0008091B0008F7DF9CF809190008F778093AB
:100700009000CFCF809190008F7DF9CF80919000A5
:10071000877FF5CF8091A0008F778093A000C1CF15
:100720008091A0008F7DF9CF8091A000877FF5CFC9
:10073000809120018F7780932001B3CF8091200199
:100740008F7DF9CF80912001877FF5CF4E2BB8CFD9
:100750003FB7F8948091C9029091CA02A091CB0250
:10076000B091CC0226B5A89B05C02F3F19F0019689
:10077000A11DB11D3FBFBA2FA92F982F8827BC01FB
:10078000CD01620F711D811D911D42E0660F771F23
:10079000881F991F4A95D1F70895CF92DF92EF9263
:1007A000FF921F93CF93DF9380E010E0909142047B
:1007B000191708F058C0E12FF0E0EE0FFF1FE25DBF
:1007C000FB4FC081D181C888D988EA88FB884C85D5
:1007D0005D856E857F85C416D506E606F70649F069
:1007E0008CA19DA1AEA1BFA1892B8A2B8B2B19F4C3
:1007F00081E01F5FDBCFACDF6B017C0188A599A591
:10080000AAA5BBA5B701A601481B590B6A0B7B0B18
:100810008CA19DA1AEA1BFA1481759076A077B070C
:1008200038F38C859D85AE85BF852A812223B9F05A
:100830000196A11DB11D8C879D87AE87BF874C8512
:100840005D856E857F85E881F9810680F781E02DE1
:10085000CE011995C8A6D9A6EAA6FBA6C9CF0197CD
:10086000A109B109E8CFDF91CF911F91FF90EF90DF
:10087000DF90CF900895282F30E0883080F4F90180
:100880008827EA5BFB4F8F4F0C94F1175F046104DC
:100890004E0459045B045D0463046504E898220F68
:1008A000331FF901E45FFD4F87E694E09183808375
:1008B0000895E998F4CFEA98F2CFEB98F0CFEC984E
:1008C000EECFED98ECCFEE98EACFEF98E8CF089511
:1008D000CF93DF93FC0123812223F9F0EC01848183
:1008E000B7DC8D81B5DC8B81843011F0883079F4F0
:1008F0008E81AEDC8F81ACDC8FA58F3F71F0A8DCE0
:100900006EA581E068278FA5DF91CF9195CE8330CA
:1009100011F0863089F78E81EECFDF91CF91089567
:10092000CF93DF93FC012381222391F0EC0101900E
:10093000F081E02D0480F581E02D60E019958FA510
:100940008F3F31F085DC6EA58FA5DF91CF9174CEFE
:10095000DF91CF910895DC01ED91FC9111972481F5
:10096000358147705527662777274150510961091E
:100970007109473051056105710570F4FA01882746
:10098000EB53FB4F8F4F0C94F117D004D204D404D7
:10099000D604D804DA04DC0461E0CD01F90119942D
:1009A00065E0FBCF64E0F9CF66E0F7CF62E0F5CF1A
:1009B0006AE0F3CF68E0F1CF69E0EFCFCF93DF9348
:1009C000EC01CB01BA0126E030E040E050E00E94AB
:1009D000D517623071058105910589F16CF46115B7
:1009E000710581059105D1F0613071058105910591
:1009F000F9F0DF91CF91089564307105810591057B
:100A000061F124F1653071058105910591F7E88167
:100A1000F9810480F581E02D66E006C0E881F98166
:100A20000480F581E02D64E0CE01DF91CF9119942F
:100A3000E881F9810480F581E02D65E0F5CFE8815A
:100A4000F9810480F581E02D61E0EECFE881F98144
:100A50000480F581E02D63E0E7CFE881F98104802F
:100A6000F581E02D62E0E0CFDC01ED91FC910480A6
:100A7000F581E02D437055276627772742305105D1
:100A80006105710571F0433051056105710559F03B
:100A9000413051056105710511F065E0199466E07A
:100AA000FDCF6AE0FBCF69E0F9CFCF93DF93EC0194
:100AB000CB01BA0123E030E040E050E00E94D517BE
:100AC000613071058105910599F0623071058105EC
:100AD0009105A9F0672B682B692BC1F4E881F98196
:100AE0000480F581E02D64E0CE01DF91CF9119946F
:100AF000E881F9810480F581E02D61E0F5CFE8819E
:100B0000F9810480F581E02D62E0EECFDF91CF9195
:100B10000895DC01ED91FC910480F581E02D437096
:100B2000552766277727423051056105710571F019
:100B3000433051056105710559F04130510561059A
:100B4000710511F062E0199463E0FDCF61E0FBCF25
:100B500060E0F9CFCF93DF93EC01E881F981048065
:100B6000F581E02D8A8160E0811162E0CE01199566
:100B7000E881F9810480F581E02D8A8161E08111AD
:100B800063E0CE0119958CA59DA58230910538F0C2
:100B9000880F991F880F991F05970197F1F7E88132
:100BA000F9810480F581E02D8A8160E0811162E0A5
:100BB000CE01DF91CF911994CF93DF93EC0120E028
:100BC00030E0A9016C897D898E899F890E94541724
:100BD00018162CF4E8A9F9A9DF91CF911994EAA984
:100BE000FBA9FACFCF92DF92EF92FF920F931F9360
:100BF000CF93DF93DC011396CC91C43039F0C83029
:100C000051F1C33019F0C63041F1C2E08C010C5FE4
:100C10001F4FF12CE12CC62ED12CD1E0F8016481BC
:100C2000C6010E2C02C0959587950A94E2F780FDC7
:100C30006D270F5F1F4F8081FFDCBFEFEB1AFB0AB0
:100C4000EC1660F3DF91CF911F910F91FF90EF9021
:100C5000DF90CF900895C4E0D9CFC3E0D7CFDC01B7
:100C60001396EC911397E93008F042C0F0E0882722
:100C7000E35CF94F8F4F0C94F11746064E0655066C
:100C80005C06630678066A0678067106ED91FC91AB
:100C900011970084F185E02DCD011994ED91FC911F
:100CA00011970284F385E02DF7CFED91FC91119718
:100CB0000484F585E02DF0CFED91FC911197068429
:100CC000F785E02DE9CFED91FC9111970088F1892E
:100CD000E02DE2CFED91FC9111970288F389E02D90
:100CE000DBCFED91FC9111970488F589E02DD4CFED
:100CF00008954F925F926F927F928F929F92AF92E0
:100D0000BF92CF92DF92EF92FF920F931F93CF93F8
:100D1000DF93EC01C888D988EA88FB888C859D859B
:100D2000AE85BF85C81AD90AEA0AFB0A6C897D8993
:100D30008E899F899B01AC010E94A2154B015C0129
:100D40006C8D7D8D8E8D9F8D9B01AC010E94571601
:100D50009B01AC01C501B4010E94BB160E94231780
:100D6000C114D104E104F10409F0B1C0623071058D
:100D7000810591050CF0CBC01CA21DA21EA21FA2D2
:100D80001C8A1D8A1E8A1F8A1CAA1DAA1EAA1FAAA7
:100D9000DF91CF911F910F91FF90EF90DF90CF9057
:100DA000BF90AF909F908F907F906F905F904F908B
:100DB00008951016110612061306B4F46C157D057D
:100DC0008E059F051CF42A812111A1C09B01AC0155
:100DD00088279927DC01821B930BA40BB50B8CABE6
:100DE0009DABAEABBFAB93C001151105210531051D
:100DF00009F48DC06C157D058E059F050CF087C02C
:100E00008A81882309F483C0309520951095019537
:100E10001F4F2F4F3F4F0CAB1DAB2EAB3FAB77C0DF
:100E2000011511052105310509F471C088249924A3
:100E300054018C189D08AE08BF08681579058A050D
:100E40009B050CF064C08A81811161C0DDCFCCAC00
:100E5000DDACEEACFFACA7019601C701B6010E9464
:100E600057162B013C01C501B4010E94431520E037
:100E700030E040E850E40E94A21520E030E040E875
:100E80005FE30E9457169B01AC01C301B2010E94AF
:100E9000BB169B01AC01C701B6010E9456163B016F
:100EA0006C01FE01E05CFF4FE080F1800281138164
:100EB0009701A8010E945417181614F473018601B3
:100EC000C701D8018CAF9DAFAEAFBFAF3AC00CA980
:100ED0001DA92EA93FA91C141D041E041F040CF4F7
:100EE00068CF10161106120613060CF099CF0027D2
:100EF000112798010C191D092E093F096017710768
:100F0000820793070CF062CF2A8121115FCF8CA852
:100F10009DA8AEA8BFA881149104A104B10409F052
:100F200096CF88AD99ADAAADBBAD8CAF9DAFAEAF3E
:100F3000BFAF81E01C141D041E041F040CF080E0F0
:100F40008A833FEF831A930AA30AB30A8CAA9DAA45
:100F5000AEAABFAACCACDDACEEACFFACC701B6010B
:100F60000E9428176CA37DA38EA39FA3A7019601BF
:100F700060E074E284E799E40E94BB166C8B7D8B81
:100F80008E8B9F8B2A81211103CF90586C8B7D8B88
:100F90008E8B9F8BFDCE2F923F924F925F926F92DE
:100FA0007F928F929F92AF92BF92CF92DF92EF92F9
:100FB000FF920F931F93CF93DF9300D01F921F9246
:100FC000CDB7DEB75C01909042047C012EE234E0A4
:100FD0003D832C8300E01A821B82212C10E09016A6
:100FE000C1F1F70161917191819191917F01EC8142
:100FF000FD81C190D190FD83EC83F601448455843A
:1010000066847784641975098609970997FF07C074
:1010100090958095709561957F4F8F4F9F4F0E945F
:101020004315F601208D318D428D538D0E94BB16E4
:10103000762E872E6C012A813B81422D512F0E94F2
:101040005417181624F47A828B822C2C1D2D0F5FD6
:10105000C6CF20E030E0A9016A817B81822D912FEB
:101060000E94541718160CF0BBC0198280914204DC
:10107000F981F81708F0B4C02F2F30E0F901EE0F16
:10108000FF1FEE0FFF1FEA0DFB1D408051806280A5
:101090007380220F331F3D832C83F901E25DFB4FE8
:1010A000E080F180F70184859585A685B785A30149
:1010B0009201281B390B4A0B5B0BCA01B9010E9434
:1010C00043152A813B81422D512F0E94BB16362E9B
:1010D000872E982E092FF70180899189A289B389DB
:1010E000481659066A067B0631F0408A518A628AA0
:1010F000738AC701FEDD2C813D81225D3B4FF901E2
:101100000190F081E02DFD83EC83248935894689A7
:101110005789632D782D892D902F0E943D158823A6
:10112000D9F1EC81FD81408C518C628C738C730100
:101130006201F7FAF094F7F8F094A7019601632D95
:10114000782D892D902F0E943D1587FD10C0A30199
:101150009201632D782D892D902F0E9454177301D1
:101160006201181624F0C32CD82CE92CF02E20E0B4
:1011700030E0A901C701B6010E943D15811110C0E0
:10118000EC81FD8114A215A216A217A2EC81FD81AB
:10119000C48AD58AE68AF78AF981FF5FF98366CF28
:1011A000A701960160E074E284E799E40E94BB160F
:1011B0009F770E942817EC81FD8164A375A386A305
:1011C00097A301E020E030E0A901C701B6010E9429
:1011D000541718160CF000E0EC81FD810283D6CF85
:1011E0000F900F900F900F900F90DF91CF911F9164
:1011F0000F91FF90EF90DF90CF90BF90AF909F90B6
:101200008F907F906F905F904F903F902F900895B8
:10121000CF92DF92EF92FF920F931F93CF93DF93C2
:10122000EC016A017B0120E030E0A901CB01B601AD
:101230000E943D1587FF04C0F7FAF094F7F8F09488
:10124000A7019601688D798D8A8D9B8D0E943D1531
:10125000882309F445C0C88ED98EEA8EFB8E8E0194
:10126000005C1F4FA701960160E074E284E799E4F7
:101270000E94BB16F80160837183828393838CA9DB
:101280009DA9AEA9BFA9181619061A061B0644F592
:101290006C897D898E899F899B01AC010E94A21572
:1012A0006B017C016C8D7D8D8E8D9F8D9B01AC01C2
:1012B0000E9457169B01AC01C701B6010E94BB16E4
:1012C0000E9423176CAB7DAB8EAB9FABCE01DF9141
:1012D000CF911F910F91FF90EF90DF90CF9009CDAC
:1012E000DF91CF911F910F91FF90EF90DF90CF9002
:1012F0000895CB0150DE51DA8111FDCF0895FB0135
:1013000001900020E9F73197AF01461B570B21C828
:101310008F929F92AF92BF92EF92FF920F931F9383
:10132000CF93DF93CDB7DEB7A1970FB6F894DEBFAA
:101330000FBECDBF7C01FA01CB0119A2223008F407
:101340002AE08E010F5D1F4F822E912CB12CA12C13
:10135000BF01A50194010E94B317F901CA016A30C7
:1013600004F5605DD8016E938D01232B242B252B72
:1013700079F790E080E0109719F0BD01C701BFDF59
:10138000A1960FB6F894DEBF0FBECDBFDF91CF910F
:101390001F910F91FF90EF90BF90AF909F908F9013
:1013A0000895695CDFCFCF93DF93BC0181E993E0BF
:1013B000A6DFEC016EE472E081E993E0A0DF8C0F20
:1013C0009D1FDF91CF91089581E592E0ECDF1092AF
:1013D0000002109201021092020210920302EBEC42
:1013E000F4E01486158616861786108A118A128AEA
:1013F000138A14AA15AA16AA17AA14A215A216A22D
:1014000017A2148A158A168A178A8091CD029091A4
:10141000CE0201969093CE028093CD0285E02BCA36
:1014200080E692E0C0DF1092040210920502109252
:10143000060210920702E7E8F4E014861586168685
:101440001786108A118A128A138A14AA15AA16AA54
:1014500017AA14A215A216A217A2148A158A168A10
:10146000178A8091CD029091CE0201969093CE0280
:101470008093CD0284E0FFC98FE692E094DF109262
:1014800008021092090210920A0210920B02E3E481
:10149000F4E01486158616861786108A118A128A39
:1014A000138A14AA15AA16AA17AA14A215A216A27C
:1014B00017A2148A158A168A178A8091CD029091F4
:1014C000CE0201969093CE028093CD0280E0D3C9E4
:1014D000CF92DF92EF92FF920F931F93CF93DF9300
:1014E00077FF1BC06A017B01EC016DE20FD88C0114
:1014F00044275527BA014C195D096E097F092AE076
:10150000CE0106DF800F911FDF91CF911F910F91C8
:10151000FF90EF90DF90CF9008952AE0DF91CF9178
:101520001F910F91FF90EF90DF90CF90F1CE4F92EF
:101530005F926F927F928F929F92AF92BF92CF9263
:10154000DF92EF92FF926B017C01AC019B010E9444
:101550009A176EE772E081111AC046015701E894AC
:10156000B7F82FEF3FEF4FE75FE7C501B4010E94E7
:101570009A17811124C02FEF3FEF4FE75FE7C501B6
:10158000B4010E943D151816D4F462E872E081E9B6
:1015900093E0B5DE7C016EE472E081E993E0AFDEBA
:1015A0008E0D9F1DFF90EF90DF90CF90BF90AF907A
:1015B0009F908F907F906F905F904F9008952FEF46
:1015C0003FEF4FE75FE4C701B6010E9454171816BA
:1015D0001CF466E872E0DBCF2FEF3FEF4FE75FECE4
:1015E000C701B6010E943D1587FDF3CF20E030E032
:1015F000A901C701B6010E943D15B12CA12C87FF9E
:101600000AC06DE281E993E00E9486025C01F7FA6C
:10161000F094F7F8F0942AE037ED43EA5BE3C70172
:10162000B6010E9457162B013C010E9428176B013E
:101630007C010E9441159B01AC01C301B2010E94D3
:1016400056162B013C012AE0B701A60181E993E07F
:101650005FDE7C01EA0CFB1C6EE281E993E00E94F4
:101660008602E80EF91E20E030E040E251E4C301BA
:10167000B2010E94A2152B013C010E9428174B01C8
:10168000B12CA12C2AE0B501A40181E993E040DE50
:10169000E80EF91EC501B4010E9441159B01AC0181
:1016A000C301B2010E94561620E030E040E251E44E
:1016B0000E94A2150E942817AB0170E060E02AE0AA
:1016C00081E993E025DEE80EF91E65CFCF93DF9325
:1016D000FC01448155814115510599F0EC0180814F
:1016E00091814150510955834483BC016F5F7F4F05
:1016F0000E94151AE881F9818C819D81E80FF91FFC
:101700001082DF91CF910895FC0180819181009733
:1017100011F00C94C31460E070E0CB0108950F93B6
:101720001F93CF93DF938C01EB01FC0180819181AA
:101730000097E1F06881798161157105A9F0428116
:1017400053812C813D814217530770F00E940E1A7D
:101750008C819D81F801958384831D821C82DF9199
:10176000CF911F910F9108950E94951888819981BA
:10177000F801918380838A819B81938382838C810A
:101780009D8195838483198218821B821A82E5CFFA
:10179000FC01808191810C949518CF93DF93FC011B
:1017A00024813581232B79F0C081D181062E000C54
:1017B000770BCE010E94031A009729F08C1B9D0B1A
:1017C000DF91CF9108958FEF9FEFFACF0F931F9383
:1017D000CF93DF93EC0188819981009759F02A819A
:1017E0003B812617370730F081E0DF91CF911F91C1
:1017F0000F9108958B016F5F7F4F0E941E19009714
:1018000059F0998388831B830A832C813D81232B84
:1018100059F7FC011082E8CF80E0E7CFEF92FF920A
:101820000F931F93CF93DF93EC017B018A01BA01E1
:10183000CDDF28813981811114C02115310519F0BE
:10184000C9010E949518198218821D821C821B8270
:101850001A82CE01DF91CF911F910F91FF90EF90EF
:1018600008951D830C83B701C9010E940E1AF1CFA0
:10187000FC0111821082138212821582148250E0C0
:1018800040E060E572E0CACFAF92BF92CF92DF92A4
:10189000EF92FF920F931F93CF93DF93EC016B01B5
:1018A0005A0179012417350720F48B2D5901E42EB4
:1018B000F82ECE01DDDFD60114960D911C91A016F5
:1018C000B10620F5E016F10608F48701D601ED9186
:1018D000FC911197E00FF11FF08010826D917C91C7
:1018E0006A0D7B1D61157105E9F0FB010190002077
:1018F000E9F73197AF01461B570BCE018FDFF60199
:1019000080819181080F191FD801FC92CE01DF91CF
:10191000CF911F910F91FF90EF90DF90CF90BF90EC
:10192000AF90089588819981009711F00E949518D1
:10193000198218821D821C821B821A82E0CF4F926C
:101940005F926F927F928F929F92AF92BF92CF924F
:10195000DF92EF92FF92CF93DF93EC016A017B015C
:1019600020E030E0A901CB01B6010E943D1587FFC0
:1019700004C0F7FAF094F7F8F0948C8C9D8CAE8C40
:10198000BF8CA7019601C501B4010E943D158823B3
:1019900009F448C06CA97DA98EA99FA90E9443158E
:1019A0002B013C01A7019601C501B4010E94BB16A1
:1019B0009B01AC01C301B2010E94A2150E94231732
:1019C0006CAB7DAB8EAB9FABA701960160E070E086
:1019D00080E090E40E94BB160E945C1726E53EE082
:1019E0004DE25FE30E94A21520E034E244E759E4AF
:1019F0000E94A21568AF79AF8AAF9BAFCC8EDD8E07
:101A0000EE8EFF8ECE01DF91CF91FF90EF90DF90B1
:101A1000CF90BF90AF909F908F907F906F905F908E
:101A20004F9067C9DF91CF91FF90EF90DF90CF90FB
:101A3000BF90AF909F908F907F906F905F904F90EE
:101A40000895CF93DF93EC0186E292E09983888337
:101A500081E08B831C861D861E861F86188A198A44
:101A60001A8A1B8A1C8A1D8A1E8A1F8A80E090E0BF
:101A7000A0E8BFE3888F998FAA8FBB8F1C8E1D8E25
:101A80001E8E1F8E88A399A3AAA3BBA31CA21DA26E
:101A90001EA21FA221E030E03DA72CA72FEF2FA709
:101AA00018A619A61AA61BA66C834D8324E02E83C4
:101AB00025E02F831EA61CAA1DAA1EAA1FAA18AEC7
:101AC00019AE1AAE1BAE1CAE1DAE1EAE1FAEFE0191
:101AD000E05CFF4F80839183A283B3831A821886D0
:101AE00019861A861B86CE010E94680440E050E0E9
:101AF00060E87FE3CE01DF91CF9121CFCF92DF92DB
:101B0000EF92FF92CF93DF93EC016A017B0120E01B
:101B100030E0A901CB01B601B0D7882351F0B7015D
:101B2000A601CE01DF91CF91FF90EF90DF90CF9093
:101B300006CFDF91CF91FF90EF90DF90CF90089587
:101B4000EF92FF920F931F93CF93DF93CDB7DEB742
:101B5000A2970FB6F894DEBF0FBECDBF8C01CB01AC
:101B6000BA01F80111821082138212821582148246
:101B70002AE0AE014F5F5F4F7A012BD7F70101904A
:101B80000020E9F73197AF014E195F09B701C8018D
:101B900045DEA2960FB6F894DEBF0FBECDBFDF9133
:101BA000CF911F910F91FF90EF9008951F920F9288
:101BB0000FB60F9211240BB60F922F933F934F93B2
:101BC0005F936F937F938F939F93AF93BF93EF93A5
:101BD000FF9384EF92E00E946402FF91EF91BF9126
:101BE000AF919F918F917F916F915F914F913F91B5
:101BF0002F910F900BBE0F900FBE0F901F90189556
:101C00001F920F920FB60F9211240BB60F922F93C3
:101C10008F939F93EF93FF93E0910403F09105035B
:101C20008081E0910A03F0910B0382FD1DC0908139
:101C300080910D038F5F8F7320910E03821741F007
:101C4000E0910D03F0E0EC50FD4F958F80930D0374
:101C5000FF91EF919F918F912F910F900BBE0F905D
:101C60000FBE0F901F9018958081F2CF1F920F9298
:101C70000FB60F9211240BB60F922F933F934F93F1
:101C80005F936F937F938F939F93AF93BF93EF93E4
:101C9000FF9381E993E00E946402FF91EF91BF916D
:101CA000AF919F918F917F916F915F914F913F91F4
:101CB0002F910F900BBE0F900FBE0F901F90189595
:101CC0001F920F920FB60F9211240BB60F922F9303
:101CD0008F939F93EF93FF93E091A103F091A20361
:101CE0008081E091A703F091A80382FD1DC090813F
:101CF0008091AA038F5F8F732091AB03821741F00D
:101D0000E091AA03F0E0EF56FC4F958F8093AA0371
:101D1000FF91EF919F918F912F910F900BBE0F909C
:101D20000FBE0F901F9018958081F2CF1F920F92D7
:101D30000FB60F9211242F933F938F939F93AF93DE
:101D4000BF938091EF029091F002A091F102B091C7
:101D5000F2023091C80223E0230F2D3758F5019687
:101D6000A11DB11D2093C8028093EF029093F00251
:101D7000A093F102B093F2028091C9029091CA023D
:101D8000A091CB02B091CC020196A11DB11D809310
:101D9000C9029093CA02A093CB02B093CC02BF9128
:101DA000AF919F918F913F912F910F900FBE0F9008
:101DB0001F90189526E8230F0296A11DB11DD2CFC2
:101DC0001F920F920FB60F9211240BB60F922F9302
:101DD0003F934F935F936F937F938F939F93AF93B3
:101DE000BF93EF93FF93E0911A02F0911B021995B4
:101DF000FF91EF91BF91AF919F918F917F916F91E3
:101E00005F914F913F912F910F900BBE0F900FBE9E
:101E10000F901F9018951F920F920FB60F921124DA
:101E20000BB60F922F933F934F935F936F937F93D4
:101E30008F939F93AF93BF93EF93FF93E09118021B
:101E4000F09119021995FF91EF91BF91AF919F9178
:101E50008F917F916F915F914F913F912F910F9053
:101E60000BBE0F900FBE0F901F9018951F920F92F0
:101E70000FB60F9211240BB60F922F933F934F93EF
:101E80005F936F937F938F939F93AF93BF93EF93E2
:101E9000FF93E0910E02F0910F021995FF91EF91DF
:101EA000BF91AF919F918F917F916F915F914F9172
:101EB0003F912F910F900BBE0F900FBE0F901F9070
:101EC00018951F920F920FB60F9211240BB60F9216
:101ED0002F933F934F935F936F937F938F939F9332
:101EE000AF93BF93EF93FF93E0910C02F0910D023B
:101EF0001995FF91EF91BF91AF919F918F917F9134
:101F00006F915F914F913F912F910F900BBE0F906A
:101F10000FBE0F901F9018951F920F920FB60F9241
:101F200011240BB60F922F933F934F935F936F93B0
:101F30007F938F939F93AF93BF93EF93FF93E09122
:101F40001602F09117021995FF91EF91BF91AF9191
:101F50009F918F917F916F915F914F913F912F91C1
:101F60000F900BBE0F900FBE0F901F9018951F92F1
:101F70000F920FB60F9211240BB60F922F933F932F
:101F80004F935F936F937F938F939F93AF93BF9381
:101F9000EF93FF93E0911402F09115021995FF91D0
:101FA000EF91BF91AF919F918F917F916F915F91D1
:101FB0004F913F912F910F900BBE0F900FBE0F903E
:101FC0001F9018951F920F920FB60F9211240BB607
:101FD0000F922F933F934F935F936F937F938F93C2
:101FE0009F93AF93BF93EF93FF93E0911202F09111
:101FF00013021995FF91EF91BF91AF919F918F912E
:102000007F916F915F914F913F912F910F900BBEF8
:102010000F900FBE0F901F9018951F920F920FB642
:102020000F9211240BB60F922F933F934F935F9310
:102030006F937F938F939F93AF93BF93EF93FF9390
:10204000E0911002F09111021995FF91EF91BF916B
:10205000AF919F918F917F916F915F914F913F9140
:102060002F910F900BBE0F900FBE0F901F901895E1
:10207000E4EFF2E01382128248EE53E060E070E099
:10208000448355836683778380E492E091838083E1
:1020900025E331E03587248724E331E0378726873D
:1020A00020E331E0318B208B21E331E0338B228B35
:1020B00022E331E0358B248B26E331E0378B268B0E
:1020C000118E128E138E148EE1E9F3E013821282C8
:1020D00044835583668377839183808385EC90E086
:1020E0009587848784EC90E09787868780EC90E0E2
:1020F000918B808B81EC90E0938B828B82EC90E0D3
:10210000958B848B86EC90E0978B868B118E128E4C
:10211000138E148E48E065E08BEC94E092DC49E08D
:1021200066E087E894E08DDC4AE067E083E494E0D1
:1021300088DC109242040895CF93DF93CDB7DEB7C9
:10214000A2970FB6F894DEBF0FBECDBF789484B5CA
:10215000826084BD84B5816084BD85B5826085BDA3
:1021600085B5816085BD80916E00816080936E0031
:102170001092810080918100826080938100809123
:1021800081008160809381008091800081608093D4
:1021900080008091B10084608093B1008091B00094
:1021A00081608093B0008091910082608093910063
:1021B0008091910081608093910080919000816076
:1021C000809390008091A10082608093A100809113
:1021D000A10081608093A1008091A0008160809324
:1021E000A0008091210182608093210180912101D2
:1021F0008160809321018091200181608093200182
:1022000080917A00846080937A0080917A00826065
:1022100080937A0080917A00816080937A00809127
:102220007A00806880937A001092C100E091A10347
:10223000F091A20322E02083E0919D03F0919E03A0
:102240001082E0919F03F091A0038FEC80831092A5
:10225000A903E091A503F091A60396E09083E09195
:10226000A303F091A403808180618083E091A303A4
:10227000F091A403808188608083E091A303F091B2
:10228000A403808180688083E091A303F091A4037C
:1022900080818F7D8083E0910403F091050320838A
:1022A000E0910003F09101031082E0910203F091AC
:1022B000030380E1808310920C03E0910803F09106
:1022C00009039083E0910603F09107038081806108
:1022D0008083E0910603F09107038081886080830A
:1022E000E0910603F0910703808180688083E0918C
:1022F0000603F091070380818F7D808364EE79E08F
:1023000085E00E94470160E17AE084E00E94470195
:102310006CE37AE080E00E944701E0914204EA30F9
:1023200068F481E08E0F80934204F0E0EE0FFF1F0F
:10233000E25DFB4F8BEC94E091838083E09142045B
:10234000EA3068F481E08E0F80934204F0E0EE0FF3
:10235000FF1FE25DFB4F87E894E091838083E0916B
:102360004204EA3068F481E08E0F80934204F0E08A
:10237000EE0FFF1FE25DFB4F83E494E091838083C7
:1023800083ED92E09C01990F440B550B2F8F38A3DE
:1023900049A35AA39CE7C92E9BEFD92EEE24EA94B9
:1023A000FE2C84EF92E00E944602892B09F447C07C
:1023B000CE0149965DDACE0143965ADACE010196F6
:1023C00057DA0E94F90197FD1AC08F8318860D8194
:1023D0001E810F5F1F4FB801CE010196F7D98823E8
:1023E00081F329813A818D819E81BE01695F7F4F92
:1023F000820F931F0E940E1A1E830D83E2CFBE012F
:102400006F5F7F4FCE0149968AD9CE010196C0D920
:102410008D8D9E8D8230910508F4DFC1CE014996E5
:102420000E949A01DC018C918D3461F4CE014996B1
:102430004DD9CE014396ACD9CE014996A9D90E9477
:10244000F102AFCFCE0149960E949A01FC01808132
:102450008D3661F3CE0149960E949A01DC018C9180
:10246000813409F4DBC0CE0149960E949A01FC0137
:102470008081813609F4D2C0CE0149960E949A012A
:10248000DC018C91873409F0EAC067E4CE014996FB
:1024900084D98C0161E4CE0149967FD95C0162E464
:1024A000CE0149967AD94C0163E4CE01499675D99B
:1024B0003C01A8014F5F5F4F9501BE01675E7F4FF2
:1024C000CE010D96E1D9A5014F5F5F4F9401BE018A
:1024D000675E7F4FCE010796D7D9A4014F5F5F4F4C
:1024E0009301BE01675E7F4FCE010196CDD9CE012B
:1024F0000D960AD9C8D26093E7027093E8028093E0
:10250000E9029093EA02CE010796FED8BCD260930E
:10251000E3027093E4028093E5029093E602CE0119
:102520000196F2D8B0D26093DF027093E0028093FC
:10253000E1029093E2026AE872E081E993E00E948E
:102540007F096091E7027091E8028091E902909121
:10255000EA020E94970A62E972E081E993E00E9430
:102560007F096091E3027091E4028091E50290910D
:10257000E6020E94970A6AE972E081E993E00E940C
:102580007F096091DF027091E0028091E1029091F9
:10259000E2020E94970A6091E7027091E80280913E
:1025A000E9029091EA024FD46093D3027093D4026F
:1025B0008093D5029093D6026091E3027091E40279
:1025C0008091E5029091E6023ED46093D702709329
:1025D000D8028093D9029093DA026091DF02709161
:1025E000E0028091E1029091E2022DD46093DB023F
:1025F0007093DC028093DD029093DE026F8D78A1F0
:1026000089A19AA10E947909CE010196C1D8CE0173
:102610000796BED8CE010D96BBD80BCFCE014996FA
:1026200055D8CE01499670D86093EB027093EC02B6
:102630008093ED029093EE0226D24B015C01BC0127
:10264000A4018BEC94E05ADAB501A40187E894E088
:1026500055DAB501A40183E494E050DAEACECE0164
:1026600049960E949A01FC018081873609F40DCFBA
:10267000CE0149960E949A01DC018C91833521F5A7
:10268000CE01499623D8CE0149963ED86093CF0219
:102690007093D0028093D1029093D202F4D14B0177
:1026A0005C01BC01A4018BEC94E00E940809B50117
:1026B000A40187E894E00E940809B501A40183E41D
:1026C00094E00E940809B5CECE0149960E949A0175
:1026D000FC0180818337A1F2CE0149960E949A01C4
:1026E000DC018C91843509F06EC02D8D3E8D41E06A
:1026F00050E0BE01675E7F4FCE010196C5D8CE0186
:10270000019602D84B0162EA72E081E993E00E94EF
:102710007F09A401990C660B770B81E993E00E9475
:10272000680A6EE472E081E993E00E947F09C0923A
:10273000D302D092D402E092D502F092D602C09297
:10274000D702D092D802E092D902F092DA02C09277
:10275000DB02D092DC02E092DD02F092DE026F8DAD
:1027600078A189A19AA10E9479090E94A8032B014E
:102770003C0188EE882E83E0982EA12CB12C0E947B
:10278000A8036419750986099709683E7340810595
:102790009105A8F3F1E08F1A9108A108B10828EE7D
:1027A000420E23E0521E611C711C81149104A1048D
:1027B000B10429F76F8D78A189A19AA10E947909A6
:1027C000CE01019629CFCE0149960E949A01FC01C3
:1027D0008081843709F02DCE88CF019709F029CE6A
:1027E000CE0149960E949A01DC018C9163EB72E064
:1027F0008D3409F4C3C0813441F5CE01079638D831
:102800004091EB025091EC026091ED027091EE026A
:102810004F5B5F4F6F4F7F4FCE01019691D9BE0145
:102820006F5F7F4FCE0107960E948F0BCE010196FE
:102830000E94C80B4B855C856F81788584EF92E0A0
:102840000E94A901CE010796E7CE833581F4CE011F
:1028500007960ED84091CF025091D0026091D102DC
:102860007091D2024D5A5F4F6F4F7F4FD5CF883551
:1028700009F056C020E233E040E050E02093CF0260
:102880003093D0024093D1025093D20281E090E085
:10289000A0E0B0E08093EB029093EC02A093ED02F5
:1028A000B093EE0240E050E068E474E48BEC94E016
:1028B0000E94080940E050E068E474E487E894E08E
:1028C0000E94080940E050E068E474E483E494E086
:1028D0000E94080940E050E060E87FE38BEC94E060
:1028E0000DD940E050E060E87FE387E894E006D946
:1028F00040E050E060E87FE383E494E0FFD880E0CC
:1029000092E00E94CB070E94CD038091CD0290916E
:10291000CE020397A1F78DEB92E00E94D30989CDF7
:10292000873409F086CD67E484EF92E00E94860246
:102930004091D3025091D4026091D5027091D60299
:1029400084EF92E00E94680A4091D7025091D80229
:102950006091D9027091DA0284EF92E00E94680AD5
:102960004091DB025091DC026091DD027091DE0249
:1029700084EF92E00E94680A6EE472E084EF92E0D5
:102980000E947F0956CD1F93FC0199278827BC011F
:10299000E89411911032E9F3193010F01E30C8F3A9
:1029A0001B3249F01D3241F4689405C020D0610FFC
:1029B000711D811D911D119110531A30B8F33EF411
:1029C00090958095709561957F4F8F4F9F4F1F9188
:1029D0000895BB272A3051F4992342F4BDE2909523
:1029E0008095709561957F4F8F4F9F4F16C0592FDF
:1029F000482F372F262F660F771F881F991F660FC6
:102A0000771F881F991F620F731F841F951F660F02
:102A1000771F881F991F0895BB27FA01A62F6217F9
:102A2000710581059105330B30FB66F0AA27660F0F
:102A3000771F881F991FAA1FA21710F0A21B63956A
:102A40003850A9F7A05DAA3308F0A95DA19336F725
:102A5000B111B1931082CA0100C0DC01FC01672FE3
:102A600071917723E1F7329704C07C916D93708365
:102A70006291AE17BF07C8F3089540D008F481E013
:102A80000895E89409C097FB3EF490958095709561
:102A900061957F4F8F4F9F4F9923A9F0F92F96E9AA
:102AA000BB279395F695879577956795B795F1111F
:102AB000F8CFFAF4BB0F11F460FF1BC06F5F7F4FBC
:102AC0008F4F9F4F16C0882311F096E911C07723CE
:102AD00021F09EE8872F762F05C0662371F096E8D7
:102AE000862F70E060E02AF09A95660F771F881FA6
:102AF000DAF7880F9695879597F90895990F00084A
:102B0000550FAA0BE0E8FEEF16161706E807F907BF
:102B1000C0F012161306E407F50798F0621B730B5A
:102B2000840B950B39F40A2661F0232B242B252BDB
:102B300021F408950A2609F4A140A6958FEF811D7E
:102B4000811D08950BD078C069D028F06ED018F0A0
:102B5000952309F05AC05FC01124A2C07ED0A0F313
:102B6000959FD1F3950F50E0551F629FF001729F22
:102B7000BB27F00DB11D639FAA27F00DB11DAA1F41
:102B8000649F6627B00DA11D661F829F2227B00D8E
:102B9000A11D621F739FB00DA11D621F839FA00D19
:102BA000611D221F749F3327A00D611D231F849F69
:102BB000600D211D822F762F6A2F11249F575040C0
:102BC0008AF0E1F088234AF0EE0FFF1FBB1F661F5B
:102BD000771F881F91505040A9F79E3F510570F014
:102BE00014C05EC05F3FECF3983EDCF386957795AA
:102BF0006795B795F795E7959F5FC1F7FE2B880F0F
:102C0000911D9695879597F9089597F99F6780E8A4
:102C100070E060E008959FEF80EC089500240A942E
:102C20001616170618060906089500240A941216A7
:102C30001306140605060895092E0394000C11F4DA
:102C4000882352F0BB0F40F4BF2B11F460FF04C087
:102C50006F5F7F4F8F4F9F4F089557FD9058440FE0
:102C6000551F59F05F3F71F04795880F97FB991FEB
:102C700061F09F3F79F087950895121613061406A8
:102C8000551FF2CF4695F1DF08C016161706180635
:102C9000991FF1CF86957105610508940895E89410
:102CA000BB2766277727CB0197F908955058BB2794
:102CB000AA270ED0C1CFB2DF30F0B7DF20F031F459
:102CC0009F3F11F41EF4A7CF0EF4E095E7FB9DCFD4
:102CD000E92FC3DF80F3BA176207730784079507EC
:102CE00018F071F49EF5DBCF0EF4E0950B2EBA2FA1
:102CF000A02D0B01B90190010C01CA01A001112402
:102D0000FF27591B99F0593F50F4503E68F11A16AD
:102D1000F040A22F232F342F4427585FF3CF46953E
:102D200037952795A795F0405395C9F77EF41F1660
:102D3000BA0B620B730B840BBAF09150A1F0FF0F2A
:102D4000BB1F661F771F881FC2F70EC0BA0F621F16
:102D5000731F841F48F4879577956795B795F79506
:102D60009E3F08F0B3CF9395880F08F09927EE0F98
:102D70009795879508950CD05FCF57DF40F04EDFD1
:102D800030F021F45F3F19F040CF511189CF43CF8C
:102D900064DF98F39923C9F35523B1F3951B550BC1
:102DA000BB27AA2762177307840738F09F5F5F4F1E
:102DB000220F331F441FAA1FA9F333D00E2E3AF05F
:102DC000E0E830D091505040E695001CCAF729D079
:102DD000FE2F27D0660F771F881FBB1F26173707C8
:102DE0004807AB07B0E809F0BB0B802DBF01FF27F8
:102DF00093585F4F2AF09E3F510568F006CF50CFA1
:102E00005F3FECF3983EDCF3869577956795B79531
:102E1000F7959F5FC9F7880F911D9695879597F94C
:102E20000895E1E0660F771F881FBB1F62177307C5
:102E30008407BA0720F0621B730B840BBA0BEE1FDA
:102E400088F7E095089504D06894B11129CF0895CA
:102E50000CDF88F09F5790F0B92F9927B751A0F059
:102E6000D1F0660F771F881F991F1AF0BA95C9F71E
:102E700012C0B13081F013DFB1E0089510CF672F99
:102E8000782F8827B85F39F0B93FCCF386957795CE
:102E90006795B395D9F73EF49095809570956195B7
:102EA0007F4F8F4F9F4F089529DE08F48FEF0895CD
:102EB00011F40EF4B0CE42C0D8DED0F39923D9F38A
:102EC000CEF39F57550B87FF47D00024A0E640EA7A
:102ED000900180585695979528F4805C660F771F6F
:102EE000881F20F026173707480730F4621B730B42
:102EF000840B202931294A2BA69517940794202565
:102F000031254A2758F7660F771F881F20F02617AC
:102F10003707480730F4620B730B840B200D311D0B
:102F2000411DA09581F7B901842F9158880F96957E
:102F300087950895E3DD880B990B08959F3F31F045
:102F4000915020F4879577956795B795880F911DD7
:102F50009695879597F9089591505040660F771F81
:102F6000881FD2F70895A1E21A2EAA1BBB1BFD01F0
:102F70000DC0AA1FBB1FEE1FFF1FA217B307E40758
:102F8000F50720F0A21BB30BE40BF50B661F771FB0
:102F9000881F991F1A9469F7609570958095909590
:102FA0009B01AC01BD01CF010895052E97FB16F4DE
:102FB00000940FD057FD05D0D6DF07FC02D046F4B1
:102FC00008C050954095309521953F4F4F4F5F4F2A
:102FD000089590958095709561957F4F8F4F9F4F85
:102FE0000895EE0FFF1F881F8BBF0790F691E02D0D
:102FF00019940F931F93CF93DF938230910510F4B0
:1030000082E090E0E0911105F091120530E020E0BF
:10301000B0E0A0E0309799F42115310509F44AC0D9
:10302000281B390B24303105D8F58A819B81611525
:10303000710589F1FB0193838283FE0111C04081F8
:1030400051810281138148175907E0F04817590749
:1030500099F4109761F012960C93129713961C93A3
:103060003296CF01DF91CF911F910F910895009378
:10307000110510931205F4CF2115310551F04217B7
:10308000530738F0A901DB019A01BD01DF01F80106
:10309000C1CFEF01F9CF9093120580931105CDCFE9
:1030A000FE01E20FF31F819391932250310939837E
:1030B0002883D7CF20910F0530911005232B41F4A1
:1030C00020911E0230911F023093100520930F05AE
:1030D00020911C0230911D022115310541F42DB7BC
:1030E0003EB74091200250912102241B350BE09104
:1030F0000F05F0911005E217F307A0F42E1B3F0B0C
:103100002817390778F0AC014E5F5F4F2417350759
:1031100048F04E0F5F1F5093100540930F058193A9
:1031200091939FCFF0E0E0E09CCFCF93DF930097A7
:10313000E9F0FC01329713821282A0911105B0913F
:103140001205ED0130E020E01097A1F420813181DB
:10315000820F931F20910F05309110052817390712
:1031600009F061C0F0931005E0930F05DF91CF9156
:103170000895EA01CE17DF07E8F54A815B819E01D9
:1031800041155105B1F7E901FB83EA834991599152
:10319000C40FD51FEC17FD0761F480819181029661
:1031A000840F951FE90199838883828193819B8392
:1031B0008A83F0E0E0E012968D919C91139700973E
:1031C000B9F52D913C911197CD010296820F931F75
:1031D00020910F05309110052817390739F63097DF
:1031E00051F51092120510921105B0931005A0939D
:1031F0000F05BCCFD383C28340815181840F951FBB
:10320000C817D90761F44E5F5F4F88819981480FD5
:10321000591F518340838A819B8193838283211527
:10322000310509F0B0CFF0931205E09311059ECF60
:10323000FD01DC01C0CF13821282D7CF4F925F9283
:103240006F927F928F929F92AF92BF92CF92DF92B6
:10325000EF92FF920F931F93CF93DF938C01009710
:1032600091F4CB01DF91CF911F910F91FF90EF90DF
:10327000DF90CF90BF90AF909F908F907F906F9096
:103280005F904F90B6CEFC01E60FF71F9C012250D5
:103290003109E217F30708F4AAC0D901CD91DC91F6
:1032A0001197C617D70718F1C530D10570F0CE01B8
:1032B00004978617970748F0C61BD70B2297C19330
:1032C000D1936D937C93CF0130DFC801DF91CF9113
:1032D0001F910F91FF90EF90DF90CF90BF90AF9034
:1032E0009F908F907F906F905F904F9008955B01BB
:1032F000AC1ABD0A4C018C0E9D1EA0911105B09117
:103300001205512C412CF12CE12C109731F58091B4
:103310000F05909110058815990509F05CC04616B7
:10332000570608F058C080911C0290911D0200972A
:1033300041F48DB79EB74091200250912102841B29
:10334000950BE817F90708F052C0F0931005E093C9
:103350000F05F90171836083B8CF8D919C9111970E
:1033600012966C90129713967C901397A815B90536
:1033700059F56C0142E0C40ED11CCA14DB0420F1E3
:10338000AC014A195B09DA011296159780F0628246
:10339000738251834083D9016D937C93E114F104CE
:1033A00071F0D7011396FC93EE9312978ECF22966D
:1033B0008C0F9D1FF90191838083F301EFCFF09370
:1033C0001205E093110581CF4816590608F42C0127
:1033D0007D01D3019ACFCB010CDE7C01009739F03F
:1033E000AE01B80107D0C801A0DE87016ECF10E0A2
:1033F00000E06BCFFB01DC0102C001900D92415057
:103400005040D8F70895FC018191861721F0882358
:10341000D9F7992708953197CF010895FB01DC0171
:1034200001900D920020E1F70895FB01DC0141506D
:10343000504048F001900D920020C9F701C01D9244
:0C34400041505040E0F70895F894FFCF91
:10344C00001900000019000000190000670467044F
:10345C0067046704670467046704670400001305C6
:10346C0080000000000090046804F2052F06DC05C3
:10347C00AA05890555053405DE04AB0400000000DF
:10348C008602A901D601D2024602E50138020D0AD4
:10349C0000496E20696E746572727570742031000B
:1034AC00496E20696E7465727275707420320049B1
:1034BC006E20696E746572727570742033006E6163
:1034CC006E00696E66006F76660053746570313AF3
:1034DC00200053746570323A200053746570333A8F
:1034EC0020004E756D626572206F662054696D65A3
:1034FC00732000696E2063617365204D00466C611A
:08350C006720736574212100A2
:00000001FF
